:100000000EC028C041C08AC025C024C023C022C061
:1000100021C020C01FC01EC01DC01CC01BC0112499
:100020001FBECFE5D2E0DEBFCDBF10E0A0E6B0E05E
:10003000E4E3F9E002C005900D92A03CB107D9F7C6
:1000400020E0A0ECB0E001C01D92AA3DB207E1F7AC
:1000500035D06EC4D5CF86B38695817091E089275F
:10006000089586B380958170089586B383FB8827B1
:1000700080F991E089270895C3980895C39A089557
:10008000C49A0895C49808951F920F920FB60F92C4
:1000900011240F900FBE0F901F901895BC9AC19A13
:1000A000B09AC39AC29AC49A83E085BB80E28BBFA0
:1000B0000000E8CF8111E4CFE5CF08955FD0EEDFF7
:1000C000D3D382E1BFD380E0BBD0CFDF811102C0A8
:1000D00080E101C084E1B6D3C3D0882329F0109217
:1000E000C1001092C000F1CF8091C0009091C1007A
:1000F00001969093C1008093C000883E934028F3FE
:10010000BBDF85B7877E806185BF85B7806285BF8D
:10011000889585B78F7D85BFB1DFD7CF1F920F92AE
:100120000FB60F9211248F939F93AF93BF9380913B
:10013000D4009091D500A091D600B091D70001963F
:10014000A11DB11D8093D4009093D500A093D6003B
:10015000B093D700BF91AF919F918F910F900FBE39
:100160000F901F901895F8946091D4007091D5006D
:100170008091D6009091D7007894089583E880BF4D
:100180008AEF8EBD89B7806489BF78940895CF9334
:10019000882331F1C2E0C093CF0081E08BDF8091F2
:1001A000CD009091CE00880F991F880F991F826013
:1001B0009093CE008093CD008091D1009091D20099
:1001C00063E070E052D39093D9008093D800C0933D
:1001D000CC008091CB00811105C0C093CB0002C040
:1001E00080E001C081E0CF910895CF93882319F179
:1001F000C1E0C093CF0081E05DDF8091CD009091A0
:10020000CE00880F991F880F991F81609093CE00B0
:100210008093CD008091D1009091D2009093D9002D
:100220008093D800C093CC008091CB00811105C091
:10023000C093CB0002C080E001C081E0CF9108955F
:100240008093D0000895CF93C82F34DFCC2321F0C2
:1002500085E08093CF0002C01092CF00CF91089527
:10026000CF92DF92EF92FF920F931F93CF93DF9382
:100270001092D9001092D800EEDEC82FF2DED82FEF
:10028000CC2329F0882319F081E08093CA00909153
:10029000D3008091CF0091111EC0882339F08530A2
:1002A00099F4CC2309F48BC280E003C0DD2319F05C
:1002B00081E0C9DF84C2CC2309F481C281E0FADE87
:1002C00081E08093CF007BC2C11179C280E0F2DE71
:1002D0001092CF0074C2843051F4CC2319F081E025
:1002E0008093C900DD2319F081E08093C8003BDFD3
:1002F0006B017C018091C4009091C500A091C60063
:10030000B091C7008C159D05AE05BF0508F024C24D
:100310008091CF00833058F5813008F466C080E0CA
:10032000C9DE83E08093CF008091D1009091D2000C
:1003300063E070E0ABD27093C3006093C20070932F
:10034000D9006093D800C0926400D0926500E0921A
:100350006600F09267008FEF9FEFDC0180936000F2
:1003600090936100A0936200B0936300E1C1833079
:1003700019F0843099F0DCC184E08093CF00809143
:10038000D1009091D2002091C2003091C300821B15
:10039000930B9093D9008093D800CAC11092CF00DC
:1003A0001092D9001092D8008091D0008130D1F401
:1003B000C11118C08091C900811114C0D11112C09F
:1003C0008091C80081110EC08091CA00882351F02D
:1003D0008091CC00813019F48093C80003C081E083
:1003E0008093C9001092CA00A3C1C1110AC08091B4
:1003F000C900811106C0D11104C08091C8008823B2
:1004000069F08091D000823018F48091CC0002C055
:100410008091CB00813009F0D9C1EFC11092CC009E
:100420001092CB008091640090916500A0916600CD
:10043000B09167008F3F2FEF9207A207B20709F430
:1004400077C197018601081B190B2A0B3B0B809182
:10045000D1009091D20063E070E007D2A0E0B0E05C
:10046000081719072A073B0708F462C18091CD00DD
:100470009091CE008639910509F413C108F06CC043
:100480008532910509F4E6C088F58930910509F4B3
:10049000F3C098F48230910509F4FAC030F4019762
:1004A00009F029C180E790E02BC18530910509F45E
:1004B000DAC0069709F422C11EC18631910509F4FC
:1004C000EAC050F48A30910509F4D3C0459709F089
:1004D00012C186E890E014C18931910509F4D5C0B4
:1004E0004A9709F008C18EE890E00AC18635910567
:1004F00009F4D4C0B0F48932910509F4B1C030F4E4
:10050000869709F0F8C086EB90E0FAC08A32910530
:1005100009F4B5C08535910509F0EDC086E790E096
:10052000EFC08936910509F4ADC058F489359105BD
:1005300009F493C08536910509F0DDC08CE790E0A1
:10054000DFC08A36910509F491C08539910509F01B
:10055000D2C08AE690E0D4C0853522E0920709F443
:10056000B2C0D8F5853521E0920709F4A9C0B8F4E6
:100570008A39910509F498C038F48939910509F050
:10058000BAC08CE690E0BCC0853A910509F48FC0F2
:10059000863A910509F0AFC084E890E0B1C08A3690
:1005A00021E0920709F486C060F4863521E09207C5
:1005B00009F483C08A35914009F09DC08AE990E032
:1005C0009FC0893921E0920709F48FC08A3A91408F
:1005D00009F091C086E990E093C0893A22E0920741
:1005E00009F477C0C8F4893622E0920709F480C084
:1005F00038F48635924009F07EC08CEA90E080C0E5
:10060000853922E0920709F461C0853A924009F0E9
:1006100072C084EA90E074C0853A25E0920709F43C
:100620005EC060F48A3A22E0920709F455C086362B
:10063000954009F060C085EB90E062C0863626E008
:10064000920709F44FC08A359A4009F054C080EBF4
:1006500090E056C08EE690E053C082E790E050C034
:1006600084E790E04DC088E790E04AC08AE790E0D8
:1006700047C08EE790E044C089EB90E041C080E83D
:1006800090E03EC082E890E03BC083EB90E038C051
:1006900088E890E035C08AE890E032C08CE890E0CD
:1006A0002FC080E990E02CC082E990E029C084E965
:1006B00090E026C088E990E023C08CE990E020C05B
:1006C0008EE990E01DC080EA90E01AC082EA90E0D6
:1006D00017C086EA90E014C088EA90E011C08AEA68
:1006E00090E00EC08EEA90E00BC082EB90E008C074
:1006F00088EB90E005C08BEB90E002C088E690E0CC
:10070000DCDC1092CE001092CD008FEF9FEFDC0169
:100710008093640090936500A0936600B093670097
:10072000C0926000D0926100E0926200F09263009B
:100730008091D8009091D900092E000CAA0BBB0B18
:100740008C0D9D1DAE1DBF1D8093C4009093C500F0
:10075000A093C600B093C7008091CF0081112FC035
:100760008091600090916100A0916200B09163005F
:100770008F3F2FEF9207A207B20709F1C81AD90AD3
:10078000EA0AFB0A8091D1009091D200880F991F4C
:10079000880F991FA0E0B0E0C816D906EA06FB064C
:1007A00070F08DEB90E089DC8FEF9FEFDC018093A0
:1007B000600090936100A0936200B093630081E0B9
:1007C0009091CF00911135C080E033C0C11107C0B6
:1007D00081E09091C900911103C080E001C081E0E7
:1007E00004DD811115C081E0D11105C09091C800D0
:1007F000911101C080E0CBDC0BC0D1110EC081E0B3
:100800009091C800911101C080E0C1DC882339F0CB
:100810001092C8001092C9008BCF81E0F6CF81E022
:10082000C11105C09091C900911101C080E0DDDCCB
:10083000EFCFDF91CF911F910F91FF90EF90DF905D
:10084000CF9008958093D300882369F0282F30E05B
:1008500040E050E060EB74E080E090E02BD030931B
:10086000D2002093D100089508950024552704C094
:10087000080E591F880F991F009729F076956795E4
:10088000B8F37105B9F7802D952F0895AA1BBB1BEE
:1008900051E107C0AA1FBB1FA617B70710F0A61B80
:1008A000B70B881F991F5A95A9F780959095BC01A1
:1008B000CD010895052E97FB16F400940FD057FD37
:1008C00005D014D007FC02D046F408C050954095DE
:1008D000309521953F4F4F4F5F4F089590958095EC
:1008E000709561957F4F8F4F9F4F0895A1E21A2E0B
:1008F000AA1BBB1BFD010DC0AA1FBB1FEE1FFF1FC4
:10090000A217B307E407F50720F0A21BB30BE40B13
:10091000F50B661F771F881F991F1A9469F760955A
:100920007095809590959B01AC01BD01CF01089514
:04093000F894FFCF69
:10093400FFFFFFFFFFFFFFFF610062006300640031
:10094400650066006700680069006A006C006D005D
:100954006F007000710073007400750076007700FA
:10096400780079007A003100320033003400350019
:10097400360037003800390030003F003D002E00BB
:100984002C00617200736B006B6E007C0020000011
:00000001FF
